101 281074114 2810741142311211536A094101Paltry Poultry         AssetVal Bank          00000000
5200AssetVal        000000000000000000000000000001WEBPAYOFF    Dec 1 2312010001281074110000000
62228107411499999000009      0000010000KyleDouglas Ha Kyle Douglas Hagadorn 0000000000000000008200000001002810741100000000000000000001000000000000010000000000000000000000000281074110000000
9000001000001000000010028107411000000000000000000010000000000000000000000000000000000000000000
9999999999999999999999999999999999999999999999999999999999999999999999999999999999999999999999
9999999999999999999999999999999999999999999999999999999999999999999999999999999999999999999999
9999999999999999999999999999999999999999999999999999999999999999999999999999999999999999999999
9999999999999999999999999999999999999999999999999999999999999999999999999999999999999999999999
9999999999999999999999999999999999999999999999999999999999999999999999999999999999999999999999
